:0B014000C2A6C2A58F8012014BD2A501
:08014B007F017E2FDEFEDFFACA
:010153002289
:10010E007F2D12016C7F3912016C7F3012016C7FD2
:01011E008060
:08011F00C2A7120140C2A52293
:070165007F2D12016C7F34B5
:08016C00D2A7120140C2A52236
:100127007F3812011F7F0C12011F7F0612011F7FEC
:090137000112011F7F8002011F6B
:0D018300EFD3940040077E7DDEFE1F80F369
:01019000224C
:0F01740075890175A882758CFF758A38D28C2227
:03000B000200BE32
:1000BE00C0E0C0D075D000C000C006C007758CFF70
:1000CE00758A38E508C394055004C2B0801BE50953
:1000DE002405FFE433FEC3E5089FEE6480F87480C8
:1000EE00985004D2B08002C2B00508E508C39464EB
:1000FE004003750800D007D006D000D0D0D0E03233
:10000E0020B7557F0A12018320B74D0509E509B4C3
:10001E00010312010EE509B402081201657F3512C3
:10002E00011AE509B4030A7F3012016C7F30120108
:10003E0015E509B4040A7F2B1201677F3512011AE8
:10004E00E509B405057F2B120110E4F508E509B4A6
:10005E00060375090530B7FD20B6547F0A120183D9
:10006E0020B64C1509E509B4010312010EE509B4D9
:10007E0002081201657F3512011AE509B4030A7FE1
:10008E003012016C7F30120115E509B4040A7F2B82
:10009E001201677F3512011AE509B405057F2B128F
:1000AE000110E4F508E509700375090130B6FD226B
:10015400120127750901E4F50812017412000E80DA
:01016400FB9F
:0300000002019169
:0C019100787FE4F6D8FD75810902015466
:00000001FF
